:020000040800F2
:10000000182F0020C1010008613A00085925000896
:100010005D3A0008290B0008896000080000000014
:10002000000000000000000000000000C9570008A8
:10003000BD12000800000000213B0008D9010008A3
:10004000DB010008DB010008DB010008DB01000820
:10005000DB010008DB0100080D150008DB010008CA
:10006000DB010008DB010008DB010008DB01000800
:10007000DB010008DB010008DB010008DB010008F0
:10008000DB010008DB010008DB010008DB010008E0
:10009000DB010008DB010008DB010008DB010008D0
:1000A000DB010008DB010008DB010008DB010008C0
:1000B000DB010008DB010008DB010008DB010008B0
:1000C000DB010008DB010008DB010008DB010008A0
:1000D000DB010008DB010008DB010008DB01000890
:1000E00069150008DB010008DB010008DB010008DE
:1000F000DB010008DB010008DB010008DB01000870
:10010000DB01000841410008DB010008DB010008B9
:10011000DB010008DB010008DD590008DB010008F5
:10012000DB010008DB010008DB010008210F0008EB
:10013000DB010008DB010008DB010008DB0100082F
:10014000DB010008DB010008DB010008DB0100081F
:10015000DB010008DB010008DB010008DB0100080F
:10016000DB010008DB010008DB010008DB010008FF
:10017000DB010008DB010008DB010008DB010008EF
:10018000DB010008DB010008DB010008DB010008DF
:10019000DB010008DB010008DB010008DB010008CF
:1001A000DB010008DB010008DB010008DFF80CD0F0
:1001B00000F02CFB00480047458C0008182F002059
:1001C0000648804706480047FEE7FEE7FEE7FEE7F1
:1001D000FEE7FEE7FEE7FEE7FEE7FEE775590008EB
:1001E000AD0100082DE9F05F0546002092469B46D0
:1001F00088460646814640241BE02846414647463D
:10020000224600F06CFA53465A46C01A914110D368
:1002100011461846224600F053FA2D1A67EB0108E2
:100220004F4622460120002100F04AFA17EB000950
:100230004E41201EA4F10104DFDC484631462A4627
:100240004346BDE8F09F40EA01039B0703D009E065
:1002500008C9121F08C0042AFAD203E011F8013BB2
:1002600000F8013B521EF9D27047D2B201E000F80B
:10027000012B491EFBD270470022F6E710B513464A
:100280000A4604461946FFF7F0FF204610BD2DE947
:10029000FE4F804681EA0300C00F0C46009021F01B
:1002A000004123F00045B8EB0200A94105D24046C9
:1002B000214690461C460B46024623F00040104360
:1002C00047D0270DC7F30A00C3F30A510290401A22
:1002D000019040286BDAC3F3130040F4801B0098B0
:1002E000924620B10023D2EB030A63EB0B0B01987B
:1002F0005946C0F14002504600F0E2F906460D466C
:1003000050465946019A00F0FAF910EB0800614195
:10031000002487EA115284EAE7731A4340D0009A16
:1003200062B3019A012A4FEA075215DC001B61EB08
:1003300002014FF0004202EA0752CDE90042001CE0
:1003400041F5801132462B4600F0FAF903B0BDE8C2
:10035000F08F40462146F9E7001B61EB0201001CCB
:1003600041F5801300185B412018A2F5001747EBF8
:10037000030140EAD570B6196D4111E06D084FEAEE
:10038000360645EAC0754FEA0752001B61EB0201D1
:10039000001C41F5801149084FEA30000019514115
:1003A00032462B4603B0BDE8F04F00F0BAB90098D2
:1003B000012240000023D0EB020263EBE0730098BF
:1003C00021464FEAE074B8EB000061EB0401E9E775
:1003D00083F000435BE781F0004158E72DE9FE4FD1
:1003E00081EA030404F0004421F0004100944FF03E
:1003F000000B23F0004350EA01045ED052EA0304EC
:100400005BD0C3F30A54C1F30A552C44A4F2F3346D
:100410000194A0FB0254C1F3130141F48011C3F312
:10042000130343F4801301FB024400FB034E840AD0
:10043000970A44EA815447EA8357A4FB0768029568
:100440008D0A05FB07854FEA932C04FB0C54270506
:10045000029D4FEA065847EA1637B5EB08056EEBE2
:10046000070C870E920E47EA811742EA8312A7FB18
:100470000201B6EB0B0164EB00042B0D43EA0C33D5
:100480005E1844EB1C50DA465146E7FB0201C5F307
:1004900013044FEA0B3343EA14534FEA0432019C2E
:1004A00043EA0603A4F10C040294009CCDE900B4D5
:1004B00000F046F903B0BDE8F08F00200146F9E7EF
:1004C0002DE9F04D81EA030404F0004B21F00045D2
:1004D00014464FF0000A23F0004150EA050220D0F4
:1004E00054EA01021DD0C5F30A570246C5F31303AF
:1004F000C1F31300C1F30A5640F4801543F480138E
:10050000A7EB0608101BD64608F2FD3873EB050072
:1005100002D308F1010801E092185B41B8F1000F25
:1005200003DA00200146BDE8F08D00204FF4801171
:10053000064684460EE0171B73EB050705D3121B16
:1005400063EB050306434CEA010C49084FEA30000F
:1005500092185B4150EA0107EDD152EA030012D034
:1005600082EA040083EA0501084305D0101BAB4171
:1005700006D20122002306E000224FF0004302E0F1
:100580006FF0010253101AEB06004CEB085110EB10
:100590000A0041EB0B01BDE8F04D00F0C2B80EB50A
:1005A000C10F80EAE0700844CA07002140F23343DB
:1005B0008DE80E000A460B4600F0C2F803B000BDFD
:1005C0000EB540F2334102910021CDE900110A46F7
:1005D0000B4600F0B5F803B000BDC1F30A5210B5E8
:1005E000C1F3130140F2FF3341F480119A4201DA62
:1005F000002010BD40F233439A42A2F2334203DCA2
:10060000524200F06CF810BD904010BD00F0004266
:1006100030F000400AD0C10D01F56071C0F3160042
:1006200042EA0151C20840071143704700200146C9
:100630007047000030B5041E71F1000404DB4FF078
:100640000044404264EB0101141E73F1000405DB19
:100650001C464FF00043524263EB04038B4208BF39
:10066000824230BD30B5041E71F1000404DB4FF04E
:100670000044404264EB0101141E73F1000405DBE9
:100680001C464FF00043524263EB0403994208BFFB
:10069000904230BD30B50B46014600202022012497
:1006A00009E021FA02F59D4205D303FA02F5491B40
:1006B00004FA02F52844151EA2F10102F1DC30BD56
:1006C000202A04DB203A00FA02F100207047914012
:1006D000C2F1200320FA03F3194390407047202A07
:1006E00004DB203A21FA02F00021704721FA02F3DC
:1006F000D040C2F120029140084319467047202A99
:1007000006DBCB17203A41FA02F043EAE07306E039
:1007100041FA02F3D040C2F1200291400843194649
:10072000704710B5141E73F1000408DA401C41F143
:10073000000192185B411A4301D120F0010010BD65
:100740002DE9F04D92469B4611B1B1FA81F202E0DB
:10075000B0FA80F220329046FFF7B2FF04460F460F
:1007600040EA0A0041EA0B0153465A46084313D0B7
:10077000114653EA010019D0C8F140025046FFF774
:10078000AEFF05460E46504659464246FFF798FFD3
:10079000084305D0012004E020463946BDE8F08D2D
:1007A0000020054346EAE0762C4337430A98630568
:1007B000E40AA0EB08000022FD0A44EA47540A308C
:1007C00002D500200146E9E7010510196941DDE97C
:1007D000084500196941BDE8F04DA2E7C1F30A528E
:1007E000C1F3130140F2FF3341F480119A4202DA5F
:1007F00000200146704740F233439A42A2F233424E
:1008000002DC5242FFF76BBFFFF75ABF064C074DA1
:1008100006E0E06840F0010394E8070098471034D0
:10082000AC42F6D3FFF7C6FC9C6D0308BC6D030811
:1008300070B58C1810F8015B15F0070301D110F8A2
:10084000013B2A1106D110F8012B03E010F8016BCF
:1008500001F8016B5B1EF9D12B0705D40023521E52
:100860000DD401F8013BFAE710F8013BCB1A921CBA
:1008700003E013F8015B01F8015B521EF9D5A142B8
:10088000D8D3002070BD00E0401E0028FCD1704786
:1008900010B500220821214801F04CFB0022042160
:1008A0001E4801F047FB002210211C4801F042FBCA
:1008B00001221021194801F03DFB4FF6FF70FFF7B0
:1008C000E2FF00221021154801F034FB002208212C
:1008D000124801F02FFB01220821104801F02AFBE9
:1008E0004FF6FF70FFF7CFFF002208210B4801F001
:1008F00021FB00220421094801F01CFB01220421F4
:10090000064801F017FB4FF6FF70FFF7BCFF00220F
:100910000421024801F00EFB10BD0000000002405F
:1009200021B1826842F00102826003E0826822F015
:1009300001028260704700000021084A1168084ADD
:100940001140D0E900231A4383681A43C3681A434D
:100950001143044AC2F80413704700000423014005
:10096000E030FCFF0020014021B1826842F4807237
:10097000826003E0826822F480728260704721B155
:10098000826842F40072826003E0826822F400729E
:100990008260704730B50246002000235068104C3A
:1009A00020400D790C6844EA05242043506090688B
:1009B0000C4C2040D1E903542C438D682C434D79D5
:1009C00044EA450420439060D06A20F470000C7D16
:1009D000641EE4B2234340EA0350D06230BD0000FD
:1009E000FFFEFFFCFDF7FFC0F0B504460D460020FA
:1009F0000021092D11DDE068A5F10A0606EB460786
:100A0000072606FA07F18843A5F10A0606EB460613
:100A100003FA06F10843E0600CE0206905EB4507A6
:100A2000072606FA07F1884305EB450603FA06F1A7
:100A300008432061072A0FDA606B561E06EB860713
:100A40001F2606FA07F18843561E06EB860605FAAE
:100A500006F10843606322E00D2A0FDA206BD61FEF
:100A600006EB86071F2606FA07F18843D61F06EB1A
:100A7000860605FA06F10843206310E0E06AA2F159
:100A80000D0606EB86071F2606FA07F18843A2F13A
:100A90000D0606EB860605FA06F10843E062F0BD96
:100AA000816841F0804181607047002101600171DF
:100AB00041718160C16001610121017570470000D1
:100AC0001CB50121022003F02DF84FF400500090D6
:100AD00001208DF8040000208DF8060002208DF81A
:100AE000070000208DF805006946044801F0AAF9C6
:100AF0004FF40051014801F019FA1CBD00040240F6
:100B000010B502F0F7FD01F095FE06F01FFD00F0B4
:100B10007BFC01F0A5FE05F009F800F08FFD00F068
:100B2000EFFF01F0F7FA10BD00BFFEE770B500253A
:100B30004FF4803400E0641E24B1802003F0D4FA26
:100B40000028F8D014B90325284670BD40F2FF50A4
:100B500003F086FA2846F8E72DE9F041064600271B
:100B60004848056801E04748056805F04500002849
:100B7000F9D005F0040030B10327042003F070FA27
:100B80003846BDE8F08105F0010028B101270120B9
:100B900003F066FA3846F4E703F0A0FAB04202D058
:100BA00010273846EDE740F2FF5003F059FA0020D5
:100BB00003F0BAFA04463448204008B93846E0E762
:100BC00004F0004008B11C20DBE704F0804008B1CD
:100BD0000920D6E704F0005008B10A20D1E704F05C
:100BE000805008B10B20CCE704F0006008B10C2065
:100BF000C7E704F0806008B10D20C2E704F0807000
:100C000008B10E20BDE704F4000008B10F20B8E7DA
:100C100004F4800008B11020B3E704F4001008B118
:100C20001120AEE704F4801008B11220A9E704F403
:100C3000002008B11320A4E704F4802008B1142098
:100C40009FE704F4003008B115209AE704F48030DF
:100C500008B1162095E704F4004008B1172090E78A
:100C600004F4804008B118208BE704F4005008B168
:100C7000192086E704F0080008B11A2081E73846F9
:100C80007FE70000342C014008E0FFFD70B500252F
:100C90001048046801E00F48046804F0450000288B
:100CA000F9D004F0040028B10325042003F0D8F99A
:100CB000284670BD04F0010028B10125012003F091
:100CC000CFF92846F5E740F2FF5003F0C9F928466E
:100CD000EFE70000342C014070B500250B48046894
:100CE00001E00A48046804F045000028F9D004F047
:100CF000040028B10325042003F0B2F9284670BD92
:100D000040F2FF5003F0ACF92846F8E7342C0140DC
:100D10002DE9F04106460F464FF0000822480568CD
:100D200001E02148056805F045000028F9D005F0EC
:100D3000040038B14FF00308042003F091F9404655
:100D4000BDE8F08105F0010030B14FF0010801204D
:100D500003F086F94046F3E703F0C0F9B04203D050
:100D60004FF010084046EBE740F2FF5003F078F9EF
:100D7000002003F0D9F9044604F4604018B9200CAF
:100D800038804046DCE704F4005008B11320D7E770
:100D900004F4804008B11020D2E704F4004008B108
:100DA0000F20CDE74046CBE7342C014070B500263C
:100DB0004FF480350F48046802E06D1E0D4804684A
:100DC00004F0450008B9002DF7D115B104F0040076
:100DD00028B10326042003F043F9304670BD04F027
:100DE000400028B10026402003F03AF93046F5E7EC
:100DF0003046F3E7342C014010B50121C80502F05C
:100E0000A1FE00214FF4000002F09CFE10BD000086
:100E100001460020034A52680A400AB1012000E05E
:100E20000020704700B0024070B50021002200236E
:100E30000024344D2D68344E3540324E35603546F1
:100E40002D68066835432F4E356035466D6B25F0AD
:100E50000705756335466D6B46683543294E7563E6
:100E6000456835B9C5682902058A2A04057D2B061F
:100E700021E04568012D05D1C5682902058A2A04AB
:100E8000002318E04568022D05D1C5686901056990
:100E9000EA0200230FE04568032D06D1C568690109
:100EA0000569AA024569EB0305E0C56829010569E2
:100EB0002A0245692B0341EA0205866835431D4332
:100EC000104EB66B35430F4EB5638569F5633546F5
:100ED0002D6C6FF30D05356435462D6CC6693543B1
:100EE000084E3564858C2C0435466D6C05F0404504
:100EF000756435466D6C066A26433543014E75644C
:100F000070BD000000B00240FCE0FCFF0348006838
:100F100040F00100014908607047000000B0024045
:100F200010B504F091F810BD0246094B9A4201D267
:100F3000084801E00648103801F000531BB1064B89
:100F40000B40C36002E0044B0B408360704700001D
:100F500010640240006002407D0F7D0F21B10268E5
:100F600042F00102026003E0026822F00102026026
:100F700070470000016821F001010160002101605B
:100F800041608160C1600161212141614A4988421B
:100F900004D13D21484A103A91608CE0464918310D
:100FA000884205D14FF47461434A103A916082E05F
:100FB00041493031884205D14FF474113E4A103A0C
:100FC000916078E03C494831884205D14FF0746126
:100FD000394A103A91606EE037496031884204D155
:100FE0003649354A103AD16065E033497831884254
:100FF00004D13349304A103AD1605CE02E49903137
:10100000884204D12F492C4A103AD16053E02A4932
:10101000A831884205D14FF03D51274A103AD1609E
:1010200049E02949884204D13D21274A083A116004
:1010300041E025491831884205D14FF47461224AB4
:10104000083A116037E020493031884205D14FF429
:1010500074111D4A083A11602DE01B49483188423D
:1010600005D14FF07461184A083A116023E016491F
:101070006031884204D11149134A121F11601AE0ED
:1010800011497831884204D10D490F4A121F11606D
:1010900011E00D499031884204D10A490A4A121FD1
:1010A000116008E00849A831884204D14FF03D5151
:1010B000054A121F11607047106002403D00002079
:1010C000400F002000003D201064024021B1026862
:1010D00042F02002026003E0026822F02002026077
:1010E000704710B501F080034BB122B1436943F062
:1010F0008003436103E0436923F080034361802957
:101100000BD02AB1036801F01E042343036004E0FE
:10111000036801F01E04A343036010BD10B5002254
:101120000268134B1A40CC680B6823434C69234375
:101130008C692343CC6923430C6A23434C6A2343C1
:101140008C6A23434C6B23438C6B23431A4302600A
:10115000426922F00702D1E90B3423431A4342616A
:101160000B6943604B6883608B68C36010BD0000EF
:101170003F801CF070B506460C46154602F0B8FEDE
:10118000CC2000F05BF84E2000F058F8284600F024
:1011900055F8204600F052F8304600F04FF802F0C3
:1011A000A7FECC2000F04AF8482000F047F800BF26
:1011B0000421034800F0B1FE0028F9D070BD000002
:1011C0000010024070B50421164800F0B1FE052061
:1011D00000F0DDF8082521E064100421114800F03A
:1011E000A5FE052000F0D3F804210E4800F0A0FE73
:1011F000052000F0CCF804210A4800F08EFE10B162
:1012000044F0800401E004F07F04412000F0BFF8C6
:101210000421044800F08CFE681EC5B2002DDBDC02
:10122000204670BD0010024010B502F061FECC20D7
:1012300000F004F8442000F001F810BD70B5044639
:1012400008251FE00421114800F070FE052000F081
:101250009EF804F0010020B104210C4800F068FE63
:1012600003E00421094800F061FE412000F08FF8FE
:101270000421064800F05CFE022000F088F86410AB
:10128000681EC5B2002DDDDC70BD000000100240FC
:101290001CB50121102002F045FC04200090012023
:1012A0008DF804008DF8060002208DF805006946CF
:1012B000014800F0C7FD1CBD00100240704700004F
:1012C00000B587B00121084602F02CFC0121102056
:1012D00002F068FC07220A211D4800F0FBFD0722EE
:1012E00009211B4800F0F6FD00208DF81A000120AE
:1012F0008DF81B0002208DF81800000205900220D6
:101300008DF8190005A9124800F09CFD02208DF807
:1013100018004002059005A90D4800F093FD4FF418
:10132000E13001900020ADF80800ADF80A00ADF8FA
:101330000C00ADF810000C20ADF80E0001A9054816
:1013400004F034FE0121034804F016FE07B000BD8E
:10135000000002400010014001B502E00098401E6C
:10136000009000980028F9D108BD01B502E000986E
:10137000401E009000980028F9D108BD01B502E098
:101380000098401E009000980028F9D108BD00EB9D
:10139000C0014FF0E02251611146096941F001019D
:1013A000116100BF4FF0E021096901F4803100298B
:1013B000F8D000214FF0E0221161916170470000E8
:1013C0001CB50121084602F0ADFB4020009003202F
:1013D0008DF8040000208DF807006946094800F0E8
:1013E00031FD0121084602F09DFB102000900320F2
:1013F0008DF8040000208DF807006946014800F0D0
:1014000021FD1CBD0000024010B5FFF7D9FF00F020
:1014100001F810BD00B599B00121880502F082FBEA
:1014200037480B9037480C9000200D9002200E900A
:1014300000200F904FF480601090400011908000C9
:10144000129040111390400214900020159001203A
:1014500016900020179018900A900AA92A48FFF7C2
:101460005DFE01212848FFF779FD0121080202F005
:1014700099FB002000904FF48030019000200290F2
:101480004FF4706003906846FFF756FA04A8FFF720
:101490000CFB0020049001208DF814008DF815003D
:1014A000002006900790089002208DF8240004A9DF
:1014B00013484C38FFF76EFA00230122062110482A
:1014C0004C38FFF791FA0023022204210C484C38D3
:1014D000FFF78AFA01210A484C38FFF750FA012138
:1014E00007484C38FFF740FA012105484C38FFF710
:1014F00017FA03484C38FFF7D3FA19B000BD0000C3
:101500004C200140340000201064024010B501203E
:1015100000F03EF818B31248006801280CD10020F2
:101520000F4908604FF480600E4908804000891E12
:101530000880400008800FE00948006860B9012079
:101540000749086080020749891E08804000891CFD
:1015500008804000891E0880012000F013F810BDAB
:10156000140000201A1C024010B54FF4005000F087
:101570000FF828B100F0ACFE4FF4005000F002F874
:1015800010BD00000149086070470000143C014094
:1015900001460020034A12680A400AB1012000E017
:1015A00000207047143C0140002123498279002A21
:1015B0003AD00A46126803689A430B461A600A1D1D
:1015C000126803689A430B1D1A60027911440A6875
:1015D00003681A430A60184A0832126803689A437B
:1015E000154B08331A601A1D126803689A43124B90
:1015F0000C331A604279102A0ED11A1F1268036840
:101600001A430D4B08331A601A1D126803681A43F7
:10161000094B0C331A600DE00749427911440A68FE
:1016200003681A430A6005E0027911440A680368F6
:101630009A430A6070470000003C01401FB5012139
:10164000052002F06FFA0121880302F0ABFA02F0E4
:1016500008FA0120029000208DF80C008DF80F0090
:1016600002A9184800F0EEFB0021084604F0AEF88D
:101670000120009000208DF8040008208DF805005E
:1016800001208DF806006846FFF78EFF4FF40050EA
:10169000029002A90C4800F0D5FB0D21022004F0B5
:1016A00095F84FF40050009000208DF804000C20B5
:1016B0008DF8050001208DF806006846FFF774FFDD
:1016C0001FBD0000000002400008024070B52DED73
:1016D000108B85480088642148438349498890FBE2
:1016E000F1F63046FEF75BFF41EC1A0B53EC1A2B78
:1016F0009FED7E0B51EC100BFEF7E2FE41EC180B58
:1017000005F0F4FEB0EE40BAF0EE60BA51EC1B0BFF
:10171000FEF763FF044654B30A2C28D82046FEF790
:101720004FFF41EC1F0B9FED730B53EC102BFEF79B
:1017300055FE41EC1E0B9FED710B53EC102BFEF789
:10174000A6FD41EC1D0B53EC1D2B51EC180BFEF7C5
:10175000B7FE41EC1C0B9FED6B0B53EC102BFEF70F
:101760003DFE41EC1B0BFEF738FF0546AEE00B2CAF
:101770002AD3142C28D82046FEF722FF41EC1F0B59
:101780009FED620B53EC102BFEF728FE41EC1E0B75
:101790009FED600B53EC102BFEF779FD41EC1D0B18
:1017A00053EC1D2B51EC180BFEF78AFE41EC1C0B81
:1017B0009FED540B53EC102BFEF710FE41EC1B0B6E
:1017C000FEF70BFF054681E00B2C2AD3142C28D8FA
:1017D0002046FEF7F5FE41EC1F0B9FED4C0B53EC42
:1017E000102BFEF7FBFD41EC1E0B9FED4A0B53EC5B
:1017F000102BFEF74CFD41EC1D0B53EC1D2B51EC57
:10180000180BFEF75DFE41EC1C0B9FED3E0B53ECFD
:10181000102BFEF7E3FD41EC1B0BFEF7DEFE054649
:1018200054E0152C2AD31E2C28D82046FEF7C8FEDB
:1018300041EC1F0B9FED390B53EC102BFEF7CEFD47
:1018400041EC1E0B9FED370B53EC102BFEF71FFDE9
:1018500041EC1D0B53EC1D2B51EC180BFEF730FE29
:1018600041EC1C0B9FED270B53EC102BFEF7B6FD44
:1018700041EC1B0BFEF7B1FE054627E02046FEF7C4
:101880009FFE41EC1F0B9FED290B53EC102BFEF735
:10189000A5FD41EC1E0B9FED270B53EC102BFEF723
:1018A000F6FC41EC1D0B53EC1D2B51EC180BFEF715
:1018B00007FE41EC1C0B9FED130B53EC102BFEF7B6
:1018C0008DFD41EC1B0BFEF788FE05464FF47A7048
:1018D000B5FBF0F000EE100AB8EE409AB0EE490AFF
:1018E000BDEC108B70BD00003400002046B6F3FD47
:1018F000D478224058A835CD3B4E913FE86A2BF66C
:1019000097DDE13F0000000080842E413BDF4F8DDA
:10191000976E923FC139234A7B83E13F98DD9387DD
:10192000855A933F2E90A0F831E6E03F7B14AE47F6
:10193000E17A943F000000000000E03F10B502464D
:1019400000200023102A03D14FF02044636E0FE0E3
:10195000B2F5807F02D10A4C236809E0B2F5805FBE
:1019600003D1074C2034236802E0054CD4342368AB
:1019700003EA01048C4201D0002000E0012010BDE8
:10198000840000A00021D0E900231A4383685B1E75
:1019900042EA4312C36842EA4321014A1160704798
:1019A000500100A070B5002200210023002405682A
:1019B000AD00A5F1C045D5F840216FF30E02D0E986
:1019C00001563543C6683543066935434669354394
:1019D00086693543C6693543066A3543466A3543E9
:1019E0002A43056835B90568AD00A5F1C045C5F8BD
:1019F000402111E03B4D2B686FF30E03D0E90756F1
:101A00003543466A35432B43364D2B600568AD00A0
:101A1000A5F1C045C5F84021056875BB314D0835B5
:101A2000066855F8261001F07041856A2D686D1E14
:101A3000866A7668761E45EA0616856AAD686D1E6A
:101A400046EA0526856AED686D1E46EA0536856A12
:101A50002D8A6D1E46EA0546856AAD8A6D1E46EAE8
:101A60000556856A2D7E6D1E46EA056529431D4D86
:101A70000835066845F8261032E0FFE7194D0835AD
:101A8000066855F8261001F07041856A2D686D1EB4
:101A9000866A7668761E45EA0616856AAD686D1E0A
:101AA00046EA0526856A2D8A6D1E46EA05452943C4
:101AB0000C4D08352C6804F07044856AED686D1E85
:101AC0002E03856AAD8A6D1E46EA05552C434FF0FC
:101AD0002045C5F84841034D0835066845F82610ED
:101AE00070BD0000400100A00449096841EA4001BE
:101AF0004FF02042C2F8541170470000540100A07A
:101B000010B5FEF7DDFFFFF7DBFB26A004F0BEFA01
:101B100001222EA12E4806F043F92E4908700846EE
:101B200000780D282CD12CA004F0B0FA0022114628
:101B300026A005F0F3FD274908700846007888B90B
:101B400030A004F0A3FA012220A1002006F028F919
:101B50002049087001221DA11D4806F021F91D49E8
:101B600008701DE04FF480602E4908804000891EF7
:101B70000880400008802CA004F088FA00BFFEE72F
:101B80001448007848B1134801782DA004F07EFA7B
:101B900034A004F07BFA00BFFEE73BA004F076FA25
:101BA00010BD00000D0A2A2A2A2A2A2A20B5E7B5E4
:101BB000BCC2CAD2C7B2E2C1BFCAFDBEDDBCC7C289
:101BC000BC202A2A2A2A2A2A0D0A0000303A0000BC
:101BD000BC050020AC000020A1B75344BFA8BBB98E
:101BE000C3BBD3D0CEC4BCFECFB5CDB3A3ACBCB4C5
:101BF000BDABBDF8D0D0B8F1CABDBBAF2E2E2E0DF7
:101C00000A000000A1B75344BFA8D2D1B3C9B9A6F6
:101C1000B8F1CABDBBAFCEC4BCFECFB5CDB3A1A396
:101C20000D0A00001A1C0240A1B6A1B6B8F1CABD47
:101C3000BBAFCAA7B0DCA1A3A1B7A1B70D0A000032
:101C4000A3A1A3A15344BFA8B9D2D4D8CEC4BCFE8B
:101C5000CFB5CDB3CAA7B0DCA1A3282564290D0A4E
:101C600000000000A3A1A3A1BFC9C4DCD4ADD2F27F
:101C7000A3BA5344BFA8B3F5CABCBBAFB2BBB3C988
:101C8000B9A6A1A30D0A0000A1B7CEC4BCFECFB572
:101C9000CDB3B9D2D4D8B3C9B9A6A3ACBFC9D2D435
:101CA000BDF8D0D0B6C1D0B4B2E2CAD40D0A0A0091
:101CB0002DE9FC4107460D46002600240020009037
:101CC000019008205B49086010204860402088602F
:101CD0000020C8604FF480600861084602F062FA94
:101CE0001020FEF739FF044614B12046BDE8FC8100
:101CF0005148008800044F49086037204860402060
:101D000088600020C8604FF480600861084602F0D7
:101D100049FA3720FEF720FF04460CB12046E5E7DC
:101D20004FF0FF3045490860082048603020886047
:101D30000220C8600020086101204861084602F0C6
:101D4000A7F900203B4908603320486040208860A4
:101D50000020C8604FF480600861084602F022FA53
:101D60003320FEF7F9FE04460CB12046BEE709E039
:101D70004FF4001002F0B8F920B102F00DFA4DF85E
:101D80002600761C2E48006840F22A610840002890
:101D9000EED0082002F0A8F928B1082002F060F97E
:101DA00004242046A2E7022002F09EF928B1022076
:101DB00002F056F90224204698E7202002F094F918
:101DC00028B1202002F04CF9062420468EE74FF47B
:101DD000007002F089F930B14FF4007002F040F960
:101DE0000724204682E740F2FF5002F039F90098BC
:101DF0000006009901F47F4140EA0120009901F4B6
:101E00007F0140EA1120009940EA11606860019862
:101E10000006019901F47F4140EA0120019901F493
:101E20007F0140EA1120019940EA116028602046B4
:101E30005CE700009005002094000020A40500202D
:101E4000342C0140F0B50A4600210023002400BFD5
:101E50003DE0012505FA01F3156805EA03049C42FB
:101E600034D105684F000326BE40B543056015799F
:101E70004E00B5400668354305601579012D02D046
:101E80001579022D16D185684F000326BE40B54353
:101E9000856055794E00B540866835438560456854
:101EA00001268E40B5434560456896798E40B6B2AE
:101EB00035434560C5684F000326BE40B543C56045
:101EC000D5794E00B540C6683543C560491C102918
:101ED000BFD3F0BDF0B5002300244D07ED0E02FA8C
:101EE00005F3CE1000F1200555F826504E07F70EE9
:101EF0000F26BE40B543CF1000F1200646F827500C
:101F0000CE1000F1200555F8265045EA0304CE1006
:101F100000F1200545F82640F0BD02460020136977
:101F20000B400BB1012000E0002070474183704757
:101F3000018370470AB1018300E0418370472DE9B6
:101F4000FC4100200090019000244FF448754FF4AC
:101F5000F076002780208DF8000048208DF80100E1
:101F600006226946BA2000F02BF80446002C02DA5B
:101F70000020BDE8FC819DF802009DF8031000EBF5
:101F8000012085B29DF804009DF8051000EB0120AA
:101F900086B280208DF800004D208DF801000322CC
:101FA0006946BA2000F00CF80446002C01DA002043
:101FB000DFE79DF8020000F003070120D9E70000E9
:101FC0002DE9F04186B005460C4616464FF0FF3726
:101FD0004FF0000800BF00BF0020ADF802008DF8F0
:101FE00000500220ADF8040002940121ADF80E105B
:101FF0008DF80C50B01E81B2ADF81010A01C0590E9
:1020000009E00221684600F0A3FB0746022F00D139
:1020100004E008F10108B8F1050FF2DB00BFB8F1E8
:10202000050F08DB6078237840EA0321B21E3B46A7
:10203000034804F02BF8384606B0BDE8F0810000F4
:10204000F86C030838B50E480068009000256C1E37
:1020500000BF00BF0DE003226946BA20FFF7B0FFC2
:1020600044B2002C01DD204638BD294605A004F00D
:102070000DF82846691CCDB20528ECDB2046F3E7B5
:102080003C6C03083C3C2D4754502D4552524F5256
:102090002D3E3E204754502069326320746573748E
:1020A000206661696C65642074696D652025642E05
:1020B0000A0000002DE9FE4380460C4615464FF00D
:1020C000FF36002700BF00BF0020ADF802008DF8EA
:1020D0000080A8B2ADF80400029408E0012168462F
:1020E00000F036FB0646012E00D102E07F1C052FD2
:1020F000F4DB00BF052F08DB6078237840EA03217A
:10210000AA1E3346024803F0C1FF3046BDE8FE83F5
:10211000486D03082DE9F0474FF0FF3500264FF0DA
:1021200000094FF0000AB82400BF00BF03F0BEFE54
:1021300000F006FBFFF786FF0546002D05DA28A014
:1021400003F0A4FF2846BDE8F08700F069F82F48A7
:10215000007818B92E4F4FF0BA0802E02D4F4FF01B
:10216000BA08F0212C48FEF787F8424639462A483B
:10217000FEF769F84FF00009022606E02648801EA7
:10218000805D484400F0FF09761CA01C8642F5DB08
:102190006FEA0900401CC1B21F4A921EA01C1154D4
:1021A0000121E01C11544FF0000A0BE0221D1A49D6
:1021B000891EBA20FFF77EFF0546002D00DD04E0F2
:1021C0000AF1010ABAF1050FF0DB00BF1348FFF76F
:1021D000D5F800F017FAFFF7B2FE0020B3E70000D1
:1021E0003C3C2D4754502D4552524F522D3E3E20DF
:1021F00049324320636F6D6D756E69636174696FF9
:102200006E204552524F52210A0000001E0300204A
:10221000B8000020720100202E020020FFFF0F00F6
:102220001CB54FF0FF341D4903C9CDE9000100BFC3
:1022300000BF08226946BA20FFF7C2FE0446002C00
:1022400004DA17A003F022FF20461CBD9DF805000C
:1022500078B99DF8020039281ED19DF80300312875
:102260001AD19DF80400312816D1012017490870B1
:1022700012E09DF8020039280ED19DF803003128A4
:102280000AD19DF80400352806D19DF805003728AD
:1022900002D100200D4908702046D6E7246C0308BF
:1022A0003C3C2D4754502D4552524F522D3E3E201E
:1022B00047545020726561642076657273696F6E51
:1022C000206661696C65640A000000001E0300203E
:1022D00010B500BF00BF00F049F810BD2DE9F04176
:1022E00006460C4615461F4600BF00BF054800685D
:1022F00030B9A9B2A0B203F035FC01200149086051
:10230000BDE8F0812C0000200021014A11607047D7
:102310002C0000202DE9F04180460C461248007840
:1023200020B903F039F901200F4908702512E6B2EF
:10233000A5F1A101C1EB011202EB411106EB410134
:10234000A13901EB4101C90001EB4101C800C117EE
:1023500000EB5171CF1007F5AA014822404603F067
:10236000F1F80020BDE8F0817C0000202DE9F04F5D
:102370008DB05EA000680C900020089009900A9033
:102380000B905B48006807900025A8464FF0BA0BF9
:1023900000260020069005900490814600244FF00E
:1023A000FF3A00BF00BF0C2207A95846FFF708FEFE
:1023B0008246BAF1000F06DA51464EA003F066FEDF
:1023C0000DB0BDE8F08F9DF81E80B8F1000F00D170
:1023D000F6E708F0800000B979E008F00F05022D5B
:1023E00000DD74E0012D14DD414B1B1D0FCB8DE88A
:1023F0000F00681EC000821C69465846FFF7E0FDCA
:102400008246681EC2000DF102010AA8FDF71BFFFB
:1024100000BF44480088A84221DD00241BE00027BB
:1024200015E0032000EBC70007A94618307800F03C
:102430000F093D48005D484500D10AE0681EB842DA
:1024400003DC3949085DFFF75FFF781CC7B2AF4274
:10245000E7DB00BF641C334800888442DFDB2DB318
:10246000002420E0032000EBC40007A946183078C0
:1024700000F00F092C4800F804907078B17840EA19
:1024800001200690F078317940EA012005907079BA
:10249000B17940EA012004904846DDE9043206990A
:1024A000FFF71CFF641CAC42DCDB0DE01D4800881C
:1024B00050B1002404E01C49085DFFF725FF641CAF
:1024C000184800888442F6DB1648058000BF0322C6
:1024D0000CA95846FFF7EEFD8246BAF1000F02DA6A
:1024E00012A003F0D3FD00BF6AE70000814E000098
:1024F000BC6B03083C3C2D4754502D4552524F5263
:102500002D3E3E20493243207472616E73666572BF
:10251000206572726F722E206572726E6F3A25643A
:102520000A200A0020030020220300203C3C2D4703
:1025300054502D494E464F2D3E3E20493243207780
:102540007269746520656E645F636D642065727284
:102550006F72210A0000000000BFFEE71CB50121D8
:10256000880501F00FFB01214FF4C47001F0DAFA85
:102570000121880301F016FB1020009001208DF846
:10258000040002208DF8050001208DF806000020CF
:102590008DF8070069461848FFF754FC202000908A
:1025A00069461548FFF74EFC4FF4807000900120FB
:1025B0008DF8040002208DF8050000208DF806003B
:1025C00002208DF8070069460C48FFF73BFC4FF4EA
:1025D0000050009001208DF8040002208DF80500C5
:1025E00000208DF8060002208DF807006946044897
:1025F000FFF728FC1CBD0000001C02400020024028
:10260000000C024000B585B04FF40050009000204F
:102610008DF8040002208DF8050000208DF80700D9
:1026200069461448FFF70EFC0D21032003F0CEF895
:102630004FF40050039000208DF8100008208DF812
:10264000110001208DF8120003A8FEF7ADFF4FF432
:10265000C06001F05BFA28208DF8080001208DF899
:1026600009008DF80A008DF80B0002A801F012FA9B
:1026700005B000BD000C024070B506460D4614467C
:1026800006F084FA46F0010006F052FA06F0AAFAC3
:1026900000B114E00DE0012C03D106F011FA06F0B0
:1026A0008FFA06F023FA28706D1C601E84B206F0C3
:1026B000E5F9002CEFD106F083FA002070BD06F09A
:1026C0007FFA0120FAE700001CB54FF4005000909B
:1026D00001208DF8040002208DF8050000208DF8FF
:1026E000060002208DF8070069461248FFF7AAFB92
:1026F0004FF480711048FFF719FC1048FEF735FEC3
:102700004FF480710C48FFF713FC0C48FEF72DFEC8
:102710004FF40050009000208DF8040002208DF846
:10272000050000208DF8070069460248FFF78AFB84
:102730001CBD0000000C024000200240FFFF0F0003
:1027400010B5FFF70BFFFFF7BFFFFFF75BFF10BDF3
:102750002DE9F04105460F460024002600BF00BFCA
:1027600000BF2BE004EB440005EB8000807800F014
:10277000010088B104EB440305EB83039A8804EB62
:10278000440305EB8303996804EB440315F8230025
:10279000FFF772FF064610E004EB440305EB8303EA
:1027A0001A7904EB440305EB8303996804EB4403B3
:1027B00015F8230000F00BF80646641C0EB9BC4265
:1027C000D0D116B13046BDE8F0812046FBE72DE9B7
:1027D000F04104460D46174606F0F2F900260AE0DD
:1027E00006F0D4F9204606F0A3F906F0FBF900B98B
:1027F00004E0701C86B2B6F57A7FF1DB00BFB6F557
:102800007A7F00D112E007E0287806F091F906F00F
:10281000E9F900B10AE06D1C381EA7F10101CFB241
:10282000F2D106F0CDF90020BDE8F08106F0C8F93C
:102830000120F9E71CB53C20009002208DF805002E
:1028400001208DF8040000208DF806006946034839
:10285000FFF7F8FAFEF71CF81CBD0000000002406C
:1028600010B500F077FE00F0B9FE012000F082FF05
:10287000002000F011FF002000F034F9012000F0EA
:102880000BFFFF2000F01EFF002000F02BF90120BD
:1028900000F002FFFF2000F015FF002000F022F9F9
:1028A00000216FF07F4000F0E7FE334800F0EEFEBD
:1028B00000F04AFE002431A1204600F0F7FB00F0B2
:1028C00043FEC48837A1204600F0F0FB00F03CFE38
:1028D000C08800EB400084B237A1204600F0E6FB40
:1028E00000F032FEC0888004040C3FA1204600F0B6
:1028F000DDFB00F029FEC088C004040C3EA1204688
:1029000000F0D4FB00F020FEC08800EBC00084B2D1
:1029100045A1204600F0CAFB00F016FEC08800EB7F
:10292000800101EBC00084B244A1204600F0BEFB50
:1029300000F00AFEC088C0EBC0004004040C4BA1AC
:10294000204600F0B3FB00F0FFFDC08800EBC000A4
:102950004004040C49A1204600F0A8FB00F0F4FD5F
:10296000C08800EB400101EB001084B250A120466A
:1029700000F09CFB10BD00005C0000202020202007
:1029800020202020202020202020202020CCD8D62D
:10299000D6BCD3B9A4B5E7B5BCC2CAB2E2C1BFD2F6
:1029A000C700000020202B2020CAB5D1E9B1E0BA31
:1029B000C520202D000000002020202020202020E5
:1029C0002020202020202020202020202020202007
:1029D0002020202020202020202B2020BCD3B9A480
:1029E000BCE4CFB620202D002020202020C8DCD23F
:1029F000BACEC2B6C8A3BA002020202020202020B2
:102A000020202020202020202020202020202020C6
:102A10002020202020202020202B2020BDC1B0E815
:102A2000CBD9B6C820202D002020202020C8DCD201
:102A3000BAB5E7B5BCC2CAA3BA0000002020202066
:102A40002020202020202020202020202020202086
:102A5000202020202020202020202020202B20206B
:102A6000BCD3B9A4B5E7D1B920202D002020202067
:102A700020BCD3B9A4CAB1BCE4A3BA002020202052
:102A80002020202020202020202020202020202046
:102A90002020202020202020202020202020202036
:102AA00020202020202020204846555400000000EF
:102AB0002020202020202020202020202020202016
:102AC0002020202020202020202020202020202006
:102AD0002020202020202020202020587550656EA6
:102AE00067000000F0B58BB00446002500260027E3
:102AF00004F47F00050C04F47F40060AE7B2FEF7F9
:102B00007BF94FF440300190012002900595049626
:102B100003970F2006900C4800680790002008904B
:102B20004FF4F07009904FF448700A9001A8FEF736
:102B30007BF9FEF7EBF900BF0220FEF769F90028E8
:102B4000FAD00BB0F0BD00005400002030B50546AF
:102B5000002409E020222146284600F08FFA094887
:102B600000688088204484B2B4F5487F09DA0548BB
:102B700000688088204480B20249096889888842B8
:102B8000E8DA30BD480000202DE9F04F93B08046D0
:102B90008946924600BF00244FF4487008FB00F0BD
:102BA00000EB40074C44514601A8FFF7B3FB002659
:102BB00049E006EB460001A90D5C2D0206EB46003C
:102BC000401C085C05432D0206EB4600801C085C97
:102BD00005434FF0000B2FE005F4000098B11C48AE
:102BE00000881C490968032202FB0411C8531848D5
:102BF000006800F47F00000C1649096802FB04110C
:102C00003944887012E01448008812490968032288
:102C100002FB0411C8531048006800F47F00000C48
:102C20000C49096802FB041139448870641C6D006A
:102C30000BF1010000F0FF0BBBF1180FCCDB04F52A
:102C40004274701CC6B2182EB3DB13B0BDE8F08F0F
:102C50004C000020540000205000002030B52DED25
:102C6000048B8BB0FEF732FDA64880ED000A04F01D
:102C70003DFCA54880ED000BA448A5A10268A7482B
:102C800003F014FA00F060FCC0884004040C2046F5
:102C9000FFF75CFF00F058FCC0884004040C9F491B
:102CA000204600F003FA9E480068FDF7AFFC41ECB7
:102CB000180B53EC182B9BA1A64803F0F7F900F072
:102CC00043FCC08800EB800084B22046FFF73EFF43
:102CD00000F03AFCC08800EB800084B29D49204699
:102CE00000F0E4F9884890ED000B53EC102B9AA10A
:102CF0009D4803F0DBF900F027FCC08800EB4000A2
:102D00004004040C2046FFF721FF00F01DFCC088A2
:102D100000EB40004004040C9349204600F0C6F943
:102D200078480068FDF772FC41EC180B53EC182B47
:102D30008EA1934803F0BAF900F006FCC08800EBBE
:102D4000400101EBC00084B22046FFF7FFFE00F017
:102D5000FBFBC08800EB400101EBC00084B2884956
:102D6000204600F0A3F9874887A10268924803F043
:102D70009DF900F0E9FBC08800EB80004004040CE2
:102D80002046FFF7E3FE00F0DFFBC08800EB800089
:102D90004004040C8849204600F088F9874A88A13D
:102DA0008D4803F083F900F0CFFBC08800EB4000B2
:102DB0008004040C2046FFF7C9FE00F0C5FBC08864
:102DC00000EB40008004040C8349204600F06EF9BB
:102DD000824890ED000B53EC102B81A18C4803F03E
:102DE00065F900F0B1FBC088C0EB001084B220464A
:102DF000FFF7ACFE00F0A8FBC088C0EB001084B267
:102E00008349204600F052F9824800683C21B0FB1B
:102E1000F1F201FB12047F480068B0FBF1F5234694
:102E20002A467DA1814803F041F900F08DFBC0885E
:102E30000005040C2046FFF789FE00F085FBC088E2
:102E40000005040C7949204600F030F97848006804
:102E5000A8B1012827D100F077FBC08800EB001053
:102E600084B22046FFF772FE00F06EFBC08800EBD4
:102E7000001084B26FA1204600F018F914E000F0B1
:102E800063FBC08800EB001084B22046FFF75EFEB3
:102E900000F05AFBC08800EB001084B26DA1204600
:102EA00000F004F900E000BF00BF16480068FDF71D
:102EB000ADFB41EC180B1A480068FDF7A7FB41EC8D
:102EC000190B544800683C21B0FBF1F4434890EDE5
:102ED000000B8DED080B2B48006806908DED048BE0
:102EE000094890ED000B8DED020B8DED009B234604
:102EF000064860490268604803F0D8F80BB0BDECA2
:102F0000048B30BD3800002040000020300000203D
:102F10002020202020204E6F2E25640086040020D3
:102F200028000020202020202020202020202020D9
:102F30002020202020202020202020202020202091
:102F4000202020202020202025332E3166206D6D6A
:102F500000000000F0030020202020202020253346
:102F60002E316620A1E600008C03002020202020C6
:102F70002025352E3266206D732F636D0000000012
:102F80005A0300201C000020202020202020202088
:102F90002020202020202020202020202020202031
:102FA0002020202020202020202020253464207272
:102FB0002F6D696E00000000BE0300202803002072
:102FC0002020202020202020202020202020202001
:102FD0002020202020257300B8040020200000209D
:102FE00020202020202020202020202020202020E1
:102FF00020202020202020202020202020202020D1
:10300000202020202025332E31662056000000008D
:103010005404002010000020202020202025326CA5
:10302000644D2025326C645300000000220400200F
:1030300014000020202020202020202020202020DC
:1030400020202020202020202052554E4E494E473F
:1030500000000000202020202020202020202020F0
:1030600020202020202020202053544F5050454421
:1030700000000000506C0308102A002070B50546BF
:103080000E461446A4F12000C4B207480068016847
:1030900005480068C088604301EB4002314628467D
:1030A00000F044F870BD0000480000202DE9F04118
:1030B00007460C4600251DE020787E280BDC227890
:1030C00029463846FFF7DAFF174800688088284409
:1030D00085B2641C0EE02688300200EB262086B202
:1030E000324629463846FFF74FFD05F1180085B2F4
:1030F000A41C00BFB5F5487F14DA0B48006880882F
:10310000284480B2084909688988884201DB012087
:1031100000E00020217809B1012100E000210840F1
:103120000028C9D1BDE8F081480000202DE9F04118
:1031300005460E46144600BF002200BF00204FF493
:1031400048776F4307EB47033044002169E00022D2
:103150005BE0374F3F68BF884FF00C0C97FBFCF7E4
:103160004FEAC70C802707FA0CF7174134F811C053
:1031700007EA0C0727B92E4F3F68BF880C2F0DDDDB
:1031800034F811704FF0010C0CFA02FC07EA0C073E
:10319000FFB9274F3F68BF880C2F1ADD254F3F88A6
:1031A000DFF894C0DCF800C04FF0030808FB00CC47
:1031B0002CF803701F4F3F6807F47F073F0CDFF8C0
:1031C00078C0DCF800C008FB00CC9C448CF802708E
:1031D00019E01A4F3F88DFF860C0DCF800C04FF0FC
:1031E000030808FB00CC2CF80370144F3F6807F469
:1031F0007F073F0CDFF840C0DCF800C008FB00CCC4
:103200009C448CF80270401C521C094F3F68BF88D8
:1032100097429ED8064F3F68BF88C7F54877384425
:10322000491C034F3F68FF888F4290D8BDE8F0816A
:103230004800002050000020540000204C000020D6
:103240001CB5012140F2FF1000F06CFC042000903E
:1032500002208DF805008DF8040000208DF806008E
:103260008DF807006946AF48FEF7ECFD0E220221FB
:10327000AC48FEF72FFE082000906946A948FEF7EB
:10328000E1FD0E220321A748FEF724FE4FF48070D3
:1032900000906946A348FEF7D5FD0E220821A148FB
:1032A000FEF718FE0120009069469F48FEF7CAFD10
:1032B000092200219C48FEF70DFE4FF400600090AB
:1032C00069469A48FEF7BEFD0E220B219748FEF78D
:1032D00001FE4FF48050009069469448FEF7B2FD1D
:1032E0000E220C219148FEF7F5FD02200090694660
:1032F0008D48FEF7A7FD092201218B48FEF7EAFD64
:103300004020009069468A48FEF79CFD0E22062167
:103310008748FEF7DFFD2020009069468548FEF7CC
:1033200091FD0E2205218348FEF7D4FD4020009038
:1033300069468048FEF786FD0E2206217D48FEF78D
:10334000C9FD4FF40050009069467648FEF77AFDBB
:103350000E220D217348FEF7BDFD4FF480600090F2
:1033600069467348FEF76EFD09220A217048FEF790
:10337000B1FD4FF40040009069466A48FEF762FDD7
:103380000E220F216748FEF7A5FD01200090694637
:103390006948FEF757FD0E2200216748FEF79AFDA7
:1033A0008020009069466548FEF74CFD0E220721FB
:1033B0006248FEF78FFD0420009069465E48FEF7E4
:1033C00041FD0E2202215C48FEF784FD1020009092
:1033D00069465848FEF736FD0E2204215548FEF78F
:1033E00079FD4FF48050009069465148FEF72AFD60
:1033F0000E220C214E48FEF76DFD402000906946DC
:103400004F48FEF71FFD0E2206214D48FEF762FDD4
:103410004FF40060009069464548FEF713FD0E2208
:103420000B214348FEF756FD1020009069464248A4
:10343000FEF708FD0E2204213F48FEF74BFD082051
:10344000009069463948FEF7FDFC0E2203213748FB
:10345000FEF740FD4FF48070009069463248FEF759
:10346000F1FC0E2208213048FEF734FD4FF40070C5
:10347000009069462C48FEF7E5FC0E2209212A48F7
:10348000FEF728FD8020009069462948FEF7DAFC07
:103490000E2207212648FEF71DFD4FF480600090A4
:1034A00069462548FEF7CEFC0E220A212248FEF787
:1034B00011FD4FF40070009069461F48FEF7C2FCF2
:1034C0000E2209211C48FEF705FD4FF48060009094
:1034D00069461C48FEF7B6FC0E220A211948FEF781
:1034E000F9FC1020009002208DF8050001208DF8D5
:1034F000040000208DF8060001208DF807006946C1
:103500000F48FEF79FFC8020009069460C48FEF7AC
:1035100099FC10210A48FEF70BFD80210848FEF7B0
:1035200007FD1CBD001C02400004024000000240D8
:103530000018024000100240002002400008024033
:10354000000C02400014024001480068704700006F
:103550004800002000B58FB00121880600F022FB52
:103560000121C80500F0DEFAFFF76AFE01F014F849
:10357000062207214FF4D27000F0DAFB4FF400303E
:1035800000F0C4FB012000F0CDFB00BF3D2000F0A7
:103590009DFB0028FAD0002000900190029003903B
:1035A0000C900D900E90049005902E200690172000
:1035B000079040F24E30089040F2F71009904FF417
:1035C00059700A9040F20D200B90684600F0E4F824
:1035D000012000F0CFF80FB000BD000000B591B0A1
:1035E0002F20019040F24E3002901820039040F2BC
:1035F000F710049001200590FF2006900790089096
:1036000009900A904FF480600B9007200C9040F6D0
:1036100063100E90C01E0F904FF4F07010904FF09A
:1036200050400D9001A9114800F087F910480D9005
:103630004FF4C0600B9007200C9001A90B4880301C
:1036400000F07BF9012000F003FA0121074800F0A7
:1036500069F901210548803000F064F9012000F08B
:10366000F7F9044800F012F811B000BD8468014079
:10367000009411D05C000020024A1060024A1160E0
:10368000704700004C0000205000002001490860F5
:10369000704700004800002038B94FF05041064AFA
:1036A00011600021054A116005E00549024A1160D8
:1036B0000121024A11607047540000205800002088
:1036C000009411D010B504460848006820B921467E
:1036D000074800F025F904E021460548803000F055
:1036E0001FF9012000F0B4F910BD000058000020BF
:1036F000846801401CB50121882000F013FA4FF4C2
:103700008060009001208DF8040000208DF80600F4
:1037100001208DF8070000208DF805006946134848
:10372000FEF790FB4FF40060009069460F48FEF7EB
:1037300089FB4FF48050009069460C48FEF782FBED
:103740004FF40060009069460948FEF77BFB4FF498
:1037500080600649183108804000088040000880D9
:1037600041100348FEF7E2FB1CBD0000001C0240B4
:10377000000C024030B10749096841F00101054AD7
:10378000116005E00349096821F00101014A116057
:103790007047000018680140F0B5002100220023A6
:1037A0000024002500265B4F3F68DFF86CC107EA64
:1037B0000C07DFF860C1CCF80070078A390467464F
:1037C0003F68D0F814C04CEA010C47EA0C07DFF858
:1037D00044C1CCF800700CF104073F68DFF838C131
:1037E00007EA0C07DFF82CC10CF1040CCCF80070D0
:1037F000078B3A0467463F68D0F81CC04CEA020CBD
:1038000047EA0C07DFF80CC10CF1040CCCF800708F
:103810000CF104073F68DFF800C107EA0C07DFF886
:10382000F4C00CF1080CCCF80070078C3B04674620
:103830003F68D0F824C04CEA030C47EA0C07DFF8D5
:10384000D4C00CF1080CCCF800700CF104073F68F0
:10385000DFF8C4C007EA0C07DFF8B8C00CF10C0CA5
:10386000CCF80070078D3C046746D7F800C0C76AE3
:1038700027434CEA070C274F0C37C7F800C03F1D01
:103880003F68DFF898C007EA0C07DFF888C00CF142
:10389000100CCCF80070D0E9007C47EA0C07D0F897
:1038A00008C047EA0C07D0F80CC047EA0C07DFF85D
:1038B00064C00CF1100CDCF800C047EA0C07DFF81C
:1038C00054C00CF1100CCCF80070476B3D02078E11
:1038D0003E04104F24373F6807F07F47DFF834C0BD
:1038E0000CF1240CCCF8007046EA0507D0F838C07B
:1038F00047EA0C07DFF81CC00CF1240CDCF800C010
:1039000047EA0C07DFF80CC00CF1240CCCF800706F
:10391000F0BD00000868014000F800F08F88FE0F3D
:103920004161704721B1026842F00102026003E088
:10393000026822F00102026070472DE9F041002484
:1039400000250026002200270023B1F804C04FEA1A
:103950000C44D0F804C00CF4704CC0F804C0D1F88A
:1039600000C04CEA040CC0F804C0B1F80CC04FEA27
:103970000C45D0F808C00CF4704CC0F808C0D1F861
:1039800008C04CEA050CC0F808C0D0F810C02CF0F4
:10399000070CC0F810C0D1F810C0C0F810C0D1F8A2
:1039A0001CC04FEA0C26B1F820C04FEA0C4291F837
:1039B00024C04FEA0C67D0F818C09C46C0F818C065
:1039C000D1F818C04CEA060C4CEA020C4CEA070C81
:1039D000C0F818C0D0F814C02CF0FF0CC0F814C008
:1039E000D1F814C0C0F814C0D0F81CC040F2077859
:1039F0002CEA080CC0F81CC0D1E90AC84CEA080C33
:103A0000C0F81CC0D0F828C09C46C0F828C0D1F827
:103A100030C0C0F828C0B1F838C04FEA0C43D0F825
:103A20002CC00CF0E02CC0F82CC0D1F834C04CEA0B
:103A3000030CC0F82CC0D0F830C06FF30A0CC0F8EB
:103A400030C0D1F83CC0C0F830C0BDE8F081000003
:103A500001490860704700002468014000BFFEE78C
:103A6000704708B54FF4C06000F050F806208DF89C
:103A7000000001208DF801008DF802008DF8030090
:103A8000684600F007F828208DF80000684600F02E
:103A900001F808BD70B5002100230F22C4781CB3C3
:103AA000174C246804F4E064C4F5E064C4F307210F
:103AB000C1F10404E3B20A4144789C40E1B2847845
:103AC000144021430C07210E0E4C057861550478F3
:103AD00004F01F050124AC4005786D11AD0005F11F
:103AE000E025C5F8004109E0047804F01F05012431
:103AF000AC40054D0678761145F8264070BD0000B3
:103B00000CED00E000E400E080E100E00249014348
:103B1000024A1160704700000000FA050CED00E059
:103B20007047000029B1064A12680243044B1A602C
:103B300004E0034A12688243014B1A607047000098
:103B40003038024029B1064A12680243044B1A6019
:103B500004E0034A12688243014B1A607047000078
:103B60001038024029B1064A12680243044B1A6019
:103B700004E0034A12688243014B1A607047000058
:103B80003838024029B1064A12680243044B1A60D1
:103B900004E0034A12688243014B1A607047000038
:103BA0004038024029B1064A12680243044B1A60A9
:103BB00004E0034A12688243014B1A607047000018
:103BC0004438024029B1064A12680243044B1A6085
:103BD00004E0034A12688243014B1A6070470000F8
:103BE00024380240F0B500210022002402250026DE
:103BF0000223324F3F6807F00C0121B1042905D0A0
:103C0000082937D105E02E4F076036E02D4F0760B9
:103C100033E02A4F3F1F3F68C7F38056274F3F1FAF
:103C20003F6807F03F036EB1264FB7FBF3F7DFF8AD
:103C30008CC0ACF1040CDCF800C0CCF3881C07FB92
:103C40000CF40CE01E4FB7FBF3F7DFF870C0ACF1DB
:103C5000040CDCF800C0CCF3881C07FB0CF4174FF5
:103C60003F1F3F68C7F301477F1C7D00B4FBF5F79A
:103C7000076002E0124F076000BF00BF0F4F3F68B0
:103C800007F0F0010909104F7A5C0768D7404760D8
:103C90000A4F3F6807F4E051890A0B4F7A5C476886
:103CA000D7408760054F3F6807F46041490B064FD6
:103CB0007A5C4768D740C760F0BD00000838024012
:103CC0000024F40040787D010000002010B501467A
:103CD0000022002300204A11012A02D10A4C236845
:103CE00008E0022A03D1084C7034236802E0064C35
:103CF0007434236801F01F02012494401C400CB16D
:103D0000012000E0002010BD0038024001460020E4
:103D1000034A106820F440300843106070470000E8
:103D20008C38024001490867704700000000474294
:103D300010B5830143EA016343EA0273014C236037
:103D400010BD00008838024010B5354835A1026822
:103D50003B4802F0ABF93B48006801280FD13A48D4
:103D6000006860B908223649384804F047F83849F5
:103D70000870012034490860344803F0F2FB3248EF
:103D80000068012812D102222D49304804F036F88B
:103D90002F4908702F4800683C21B0FBF1F0AA21A0
:103DA00000FB01F42146294803F0EBFB284800788A
:103DB000002821D1284BAA222849244804F035F9AB
:103DC000234908700846007848B92348016824A0B0
:103DD00002F05CF921492AA002F058F908E01C48D9
:103DE00001782AA002F052F92EA1324802F05EF9C1
:103DF000164803F0B6FB11E04FF480602E490880AE
:103E00004000891E0880400008802CA002F03EF986
:103E1000034831A10268274802F048F910BD0000AC
:103E200030000020303ACAB5D1E92564B5E7B5BC09
:103E3000C2CACAFDBEDDBCC7C2BC2E747874000005
:103E4000BA2A002014000020B4000020EC15002045
:103E5000AC00002010000020B0000020102A00203C
:103E6000A1B7CAFDBEDDD0B4C8EBB3C9B9A6A3AC37
:103E7000D0B4C8EBD7D6BDDAA3BA25640A000000D7
:103E8000A1B7200A25730D0A0A0A0000A3A1A3A165
:103E9000CEC4BCFED0B4C8EBCAA7B0DCA3BA2825F8
:103EA00064290A00CEC4BCFED0B4C8EBCAA7B0DCFB
:103EB00000000000280300201A1C0240A3A1A3A1B7
:103EC000B4F2BFAA2FB4B4BDA8CEC4BCFECAA7B07A
:103ED000DCA1A30D0A000000CAB5D1E92564B4F243
:103EE000BFAA2FB4B4BDA8CEC4BCFECAA7B0DC0024
:103EF00010B504211248FEF71BF83220FDF747FAEF
:103F000004210F48FEF712F84FF4FA70FDF73FFA5C
:103F100004210B48FEF70CF82820FDF738FA00BF03
:103F200004210748FDF7F9FF0028F9D14FF4FA7092
:103F3000FDF72DFA04210248FDF7FAFF204610BDD7
:103F4000001002407CB5054600240020009001903E
:103F500000F0EAF800F0007010B10E2420467CBD9D
:103F60003D49098888B26946FDF7A2FE04460CB1B6
:103F70002046F4E7012D36D1019800F48020002876
:103F80002ED0354800880004344908603720486046
:103F9000402088600020C860A8020861084600F040
:103FA00001F93720FCF7D8FD04460CB12046D6E7CE
:103FB00002202A49086006204860402088600020CE
:103FC000C8604FF480600861084600F0EBF80620F6
:103FD000FCF7C2FD04460CB12046C0E72046BEE710
:103FE00025242046BBE7019800F4803078B31A48B6
:103FF0000088000419490860372048604020886024
:104000000020C8604FF480600861084600F0CAF8DC
:104010003720FCF7A1FD04460CB120469FE70020A5
:104020000E49086006204860402088600020C86073
:104030004FF480600861084600F0B4F80620FCF7F1
:104040008BFD04460CB1204689E7204687E7FFE751
:104050002524204683E700009400002090050020DE
:104060000149086070470000382C01400149086090
:1040700070470000382C014001490860704700007B
:10408000A080254201490860704700008C852542C8
:1040900000210B4B02681A601B1D42681A601A1D32
:1040A000116821F0F701D0E902231A4303691A438A
:1040B00043691A431143024A0832116070470000F5
:1040C000242C014010B50121C802FFF77BFD00211F
:1040D0004FF40060FFF776FD10BD00000148006856
:1040E000C0B27047102C014001460020034A1268FC
:1040F0000A400AB1012000E000207047342C014042
:1041000001460020034A12680A400AB1012000E07B
:1041100000207047342C01400248006800F0030082
:1041200070470000002C014008B5014600200090B7
:104130000248084400900098006808BD142C014013
:1041400010B500F095FF10BD29B1064A1268024370
:10415000044B1A6004E0034A12688243014B1A6060
:10416000704700003C2C014000210A4A116847F6C4
:10417000FF629143027D83681A4343681A43C36810
:104180001A4303681A4303691A431143014A116031
:1041900070470000042C014001480068704700008F
:1041A000802C01400021094B02681A601A1D116819
:1041B0006FF30A01D0E901231A43C3681A43036964
:1041C0001A431143014A121D11607047082C014027
:1041D0000149086070470000002C01401CB5012116
:1041E000FC20FFF79FFC02208DF804008DF80500ED
:1041F00000208DF806008DF8070001200090694628
:10420000DF48FDF71FFE0C220021DD48FDF762FEAE
:10421000022000906946DA48FDF714FE0C220121C5
:10422000D748FDF757FE042000906946D448FDF7B3
:1042300009FE0C220221D248FDF74CFE0820009016
:104240006946CF48FDF7FEFD0C220321CC48FDF75F
:1042500041FE102000906946C948FDF7F3FD0C228D
:104260000421C748FDF736FE202000906946C44867
:10427000FDF7E8FD0C220521C148FDF72BFE4FF4A8
:10428000805000906946BE48FDF7DCFD0C221146C7
:10429000BB48FDF71FFE4FF4005000906946B84838
:1042A000FDF7D0FD0C220D21B548FDF713FE4FF4AC
:1042B000804000906946B248FDF7C4FD0C220E21F3
:1042C000AF48FDF707FE4FF4004000906946AC4848
:1042D000FDF7B8FD0C220F21A948FDF7FBFD0120D9
:1042E00000906946A748FDF7ADFD0C220021A548C6
:1042F000FDF7F0FD022000906946A248FDF7A2FDFF
:104300000C2201219F48FDF7E5FD0420009069463D
:104310009C48FDF797FD0C2202219A48FDF7DAFD33
:104320004FF48040009069469748FDF78BFD0C22C2
:104330000E219548FDF7CEFD4FF4004000906946F0
:104340009148FDF77FFD0C220F218F48FDF7C2FD3C
:104350000120009069468C48FDF774FD0C22002175
:104360008948FDF7B7FD0220009069468648FDF7B1
:1043700069FD0C2201218448FDF7ACFD80200090EE
:1043800069468248FDF75EFD0C2207217F48FDF754
:10439000A1FD4FF48070009069467C48FDF752FD06
:1043A0000C2208217948FDF795FD4FF4007000902C
:1043B00069467648FDF746FD0C2209217348FDF752
:1043C00089FD4FF48060009069467048FDF73AFD22
:1043D0000C220A216D48FDF77DFD4FF4006000902E
:1043E00069466A48FDF72EFD0C220B216748FDF750
:1043F00071FD4FF48050009069466448FDF722FD3E
:104400000C2211466148FDF765FD4FF40050009005
:1044100069465E48FDF716FD0C220D215B48FDF74D
:1044200059FD4FF48040009069465848FDF70AFD59
:104430000C220E215548FDF74DFD4FF40040009031
:1044400069465248FDF7FEFC0C220F214F48FDF74C
:1044500041FD4FF48070009069464B48FDF7F2FC37
:104460000C2208214848FDF735FD4FF400700090FC
:1044700069464548FDF7E6FC0C2209214248FDF754
:1044800029FD4FF48060009069463F48FDF7DAFC53
:104490000C220A213C48FDF71DFD40200090694692
:1044A0003B48FDF7CFFC0C2206213948FDF712FDF1
:1044B0001020009069463348FDF7C4FC0C2204210B
:1044C0003048FDF707FD2020009069462D48FDF794
:1044D000B9FC0C2205212B48FDF7FCFC01200090C3
:1044E00069462C48FDF7AEFC0C2200212948FDF757
:1044F000F1FC4FF40060009069462148FDF7A2FCF2
:104500000C220B211E48FDF7E5FC4FF40040009003
:1045100069461C48FDF796FC0C220F211948FDF74F
:10452000D9FC4FF48070009069461648FDF78AFC6C
:104530000C2208211348FDF7CDFC8020009069462D
:104540001348FDF77FFC0C2207211148FDF7C2FC40
:104550000220009069460D48FDF774FC0C220121F1
:104560000A48FDF7B7FC0120009069460748FDF7AF
:1045700069FC0C2200210548FDF7ACFC1CBD0000C5
:104580000014024000180240000C024000100240DB
:10459000001C02400008024000B593B0FFF71EFE69
:1045A00001210846FFF7DEFA022001900720029061
:1045B00004200390072004900220059006900790A5
:1045C00001200890099008200A9010200B904020AC
:1045D0000C904FF4C0700D9000200E904FF40060CE
:1045E0000F90002010904FF40050119001A81290ED
:1045F00008A8FDF7D7F900F002F813B000BD1FB509
:104600000024012000900820019001200290002049
:10461000039000BF20210120FDF790F90028F9D177
:104620006846FDF7AFF90A2000F04EF8022000902E
:1046300008200190012002900020039000BF20215B
:104640000120FDF77BF90028F9D16846FDF79AF9BA
:104650000320009008200190042002900020039085
:1046600000BF20210120FDF769F90028F9D1684633
:10467000FDF788F900BF20210120FDF75FF9002830
:10468000F9D16846FDF77EF940F23124042000900C
:104690000820019001200290039400BF20210120F6
:1046A000FDF74CF90028F9D16846FDF76BF940F2A7
:1046B000AB20FDF719FA00BF20210120FDF73EF9DC
:1046C0000028F9D11FBD000001B581B00020009085
:1046D000054901984843009002E00098401E009070
:1046E00000980028F9D10CBDA086010008B5012072
:1046F00000909DF8000008BD70B5044600252048D4
:104700000068032802D12725284670BD1C48006890
:1047100038B11B480068012803D0194800680228F6
:104720002CD1B4F5805F02D127252846EDE7B4F5FA
:10473000006F13D10120FFF705FC0546F5B90020F5
:10474000104908750860486088604FF40060C860D0
:10475000002008610846FFF707FD0FE00020FFF783
:10476000F1FB054655B90020064908750860486008
:104770008860C86008610846FFF7F6FC2846C4E771
:104780009000002078050020F0B5014600200022AE
:10479000C04B1B7881F85630BF4B1B88A1F85430B2
:1047A000BE4B1B681A0E93090B70C2F383034B7048
:1047B00002F003038B70B94B1B68C3F30742CA7046
:1047C000B64B1B88C3F307220A71B44B1A784A719F
:1047D0005B681A0E1301CB80B04B5B68C3F30742D2
:1047E000CB8843EA1213CB8002F00F030B72AB4B62
:1047F0009B88C3F30722D3094B72C2F380138B72D9
:10480000C2F34013CB72C2F300130B7300234B733C
:10481000A04B1B681BB19F4B1B68012B4FD193070B
:104820001B0D0B619D4B1A790B6943EA82030B61E7
:104830009A4B9B681A0E0B6943EA92130B61C2F301
:10484000C2030B7502F007034B75944B9B68C3F3CF
:10485000074253098B75C2F38203CB7593075B0F35
:104860000B768E4B1B89C3F307220B7E43EAD213D0
:104870000B760B695B1C0024C1E912340B7ED1E975
:1048800012469B1C012505FA03F3DF17A4FB035C0A
:1048900006FB03C304FB0733C1E912530C7A01235F
:1048A000A3400B650027D1E912560B6DA5FB034C05
:1048B00006FB03C305FB0733C1E9124336E0754B22
:1048C0001B68022B32D1754B1A7993069B0A0B6138
:1048D000724B9B681A0E0B6943EA02230B616F4B04
:1048E0009B68C3F307420B6913430B616B4B1B8936
:1048F000C3F307220B6900245B1C44EB04074FF44D
:1049000000760025A3FB064C07FB06C603FB0566E5
:104910004FF480650027A4FB053C06FB05C504FB9E
:104920000754C1E912344FF400730B65C2F38013CE
:1049300001F8193F93065B0E4B70584B1A7A4B786F
:1049400043EAD2134B7002F07F038B70534BDB684A
:104950001A0ED309CB70C2F341130B71C2F3820359
:104960004B7193071B0F8B714C4BDB68C3F30742F2
:104970008B7943EA92138B71C2F34013CB710023FE
:104980000B7202F001034B72444B9B89C3F3072265
:10499000D3098B72C2F38013CB72C2F340130B7333
:1049A000C2F300134B73C2F381038B7302F0030352
:1049B000CB733A4B1A7B53080B7401234B74384B5F
:1049C0001B681A0ECA741939354B1B68C3F30742AA
:1049D0001402CC85324B1B88C3F30722CB8D1343C3
:1049E000CB852F4B1A7814060C635B681A0E0B6B81
:1049F00043EA02440C632A4B5B68C3F307420B6B28
:104A000043EA02240C63264B9B88C3F307220B6BFB
:104A100013430B63224B1A7934235A54204B9B685F
:104A20001A0E35235A541E4B9B68C3F307421406D3
:104A30008C631B4B1B89C3F307228B6B43EA024435
:104A40008C63174B1A7A8B6B43EA02248C63144BEA
:104A5000DB681A0E8B6B13438B63114BDB68C3F35C
:104A600007423C235B5C43EA12143C235C5413076B
:104A70001C0DCC870A4B9B89C3F30722CB8F1343B2
:104A8000CB87074B1A7B540840235C5401244123F5
:104A90005C54F0BD9000002094000020F004002041
:104AA0000005002008B500200090FFF71FFE012838
:104AB00009D1684600F0CAFB08B1FF2008BD009884
:104AC000C0F34320FAE7FF20F8E710B50424FFF70E
:104AD000E9FF0446042C01D1002010BDFF2C01D1B8
:104AE0000220FAE70120F8E71CB5002001904FF4FE
:104AF000C060FFF70BF831208DF8000001208DF821
:104B0000010000208DF8020001208DF803006846A6
:104B1000FEF7C0FF3B208DF8000001208DF801005A
:104B20006846FEF7B7FF00F06DF9FFF7CBFA00F02B
:104B3000BBF901909DF8040010B19DF804001CBD64
:104B400000F032F801909DF8040010B19DF80400C7
:104B5000F5E7002012490875086048608860C86061
:104B600008610846FFF700FB0E48FFF70DFE0190B5
:104B70009DF8040040B90B48B0F8540002041046F8
:104B8000002100F047FB01909DF8040020B94FF48C
:104B90000060FFF7B1FD01909DF80400CFE7000031
:104BA000780500202005002038B500240120009061
:104BB000FFF7B2FA10B92524204638BD44480068F2
:104BC000042828D000204349086002204860C02003
:104BD00088600020C8604FF4806008610846FFF7D5
:104BE000E1FAFCF753F804460CB12046E5E7002053
:104BF000FFF79AFA384908600420FFF795FA36491A
:104C000048600820FFF790FA334988600C20FFF7CE
:104C10008BFA3149C8602E48006858B12C480068AA
:104C2000012807D02A480068062803D028480068D1
:104C3000022816D100202749086003204860402040
:104C400088600020C8604FF4806008610846FFF764
:104C5000A9FA69460320FCF75BF804460CB120462C
:104C6000ABE71B48006804282ED0BDF800001B49A4
:104C70000860BDF80000000416490860092048607B
:104C8000C02088600020C8604FF48060086108463A
:104C9000FFF788FAFBF7FAFF04460CB120468CE7D1
:104CA0000020FFF741FA0E4908600420FFF73CFAA4
:104CB0000B4948600820FFF737FA094988600C2043
:104CC000FFF732FA0649C8600024204675E7000065
:104CD0009000002090050020000500209400002096
:104CE000F004002030B58FB004460D464FF0FA5165
:104CF0001E48FCF719F900211C48FCF72FF91B4846
:104D0000FCF738F94FF000600090194801900294C8
:104D10000020039001200490002005904FF4806053
:104D200006908000079080000890002009904FF4C2
:104D300040300A9004200B9003200C904FF40000A8
:104D40000D9080100E9069460848FCF7E7F90122A3
:104D500010210648FCF7C5F920210448FCF7B6F9F4
:104D600001210248FCF7FAF80FB030BD5864024048
:104D7000802C014030B58FB004460D464FF0FA51FB
:104D80001E48FCF7D1F800211C48FCF7E7F81B4847
:104D9000FCF7F0F84FF00060009019480190029481
:104DA0004020039001200490002005904FF4806083
:104DB00006908000079080000890002009904FF432
:104DC00040300A9004200B9003200C904FF4000018
:104DD0000D9080100E9069460848FCF79FF901225B
:104DE00010210648FCF77DF920210448FCF76EF9F4
:104DF00001210248FCF7B2F80FB030BD5864024000
:104E0000802C01401CB501210C20FEF78BFE0C22EA
:104E100008212348FDF75EF80C2209212048FDF700
:104E200059F80C220A211E48FDF754F80C220B21D8
:104E30001B48FDF74FF80C2211461948FDF74AF8B8
:104E40000C2202211748FDF745F84FF470600090DE
:104E500002208DF805008DF8040000208DF8060072
:104E600001208DF8070069460D48FCF7EBFF042090
:104E7000009069460B48FCF7E5FF4FF48050009026
:104E800000208DF8070069460548FCF7DBFF01218B
:104E9000C802FEF787FE01218805FEF743FE1CBD10
:104EA00000080240000C0240F8B5002000900025E8
:104EB00000240026002776205F490875002008603E
:104EC00048608860C86008610846FFF74DF9032014
:104ED000FFF77EF90120FFF7CFF80020574908605F
:104EE00048608860C8604FF4806008610846FFF73A
:104EF00059F9FBF71BFE00909DF8000010B19DF8DA
:104F00000000F8BD4FF4D5704C4908600820486097
:104F1000402088600020C8604FF480600861084627
:104F2000FFF740F9FBF742FF00909DF8000020B921
:104F3000012043490860870712E000203F490860CC
:104F400037204860402088600020C8604FF48060AF
:104F500008610846FFF726F93720FBF7FDFD0090B2
:104F600000203649086037204860402088600020D3
:104F7000C8604FF4806008610846FFF713F93720D6
:104F8000FBF7EAFD00909DF80000002851D13BE0BE
:104F900000202A49086037204860402088600020AF
:104FA000C8604FF4806008610846FFF7FBF83720BF
:104FB000FBF7D2FD00909DF8000010B19DF80000B5
:104FC0009FE7204838431D49086029204860402059
:104FD00088600020C8604FF4806008610846FFF7D1
:104FE000E1F8FBF779FE00909DF8000010B19DF804
:104FF000000086E70020FFF797F80546012080EAC9
:10500000D57080F00106641C1EB94FF6FF70844213
:10501000BED34FF6FF70844204D31B2000909DF84E
:1050200000006EE705F08040051E02D00220044912
:1050300008609DF8000064E77805002090050020D6
:10504000900000200000108010B50748006800F0B4
:10505000C05040B10120054908604FF0C2510248DC
:105060005830FBF761FF10BD00640240A40000202F
:1050700010B54FF48070FFF743F850B10020254978
:1050800008704FF48070FEF7F1FF0120224908609C
:1050900037E00220FFF734F830B10220FEF7E6FFD8
:1050A00002201C4908702CE00820FFF729F830B1D5
:1050B0000820FEF7DBFF04201649087021E02020BD
:1050C000FFF71EF830B12020FEF7D0FF062011496F
:1050D000087016E01020FFF713F830B11020FEF72B
:1050E000C5FF05200B4908700BE04FF40070FFF777
:1050F00007F830B14FF40070FEF7B8FF07200549FC
:10510000087000214CF23A30FFF71EF80148007891
:1051100010BD00009C000020A00000202DE9F047F9
:10512000814614461D46DDE9086800270020324903
:105130000870324908600120314908600020314977
:105140000860012140F22A30FEF7FEFF08FB06F15D
:105150004846FFF7C7FD0120FEF794FF2A48006884
:10516000022808D106020202002320462946FBF746
:1051700039F804460D46254806601020234948604A
:10518000402088600020C8604FF4806008610846B5
:10519000FFF708F81020FBF7DFFC074617B1384689
:1051A000BDE8F0874FF0FF301949086008FB06F0B2
:1051B0004860902088600220C860002008610120BB
:1051C00048610846FEF764FF1048046012200F494A
:1051D0004860402088600020C8604FF4806008610B
:1051E0000846FEF7DFFF1220FBF7B6FC07460FB1BB
:1051F0003846D5E73846D3E79C000020A0000020C1
:10520000980000202C2C01409000002090050020E8
:10521000A405002070B504460D4600260A48046027
:10522000072009494860402088600020C8604FF48A
:10523000806008610846FEF7B5FF0720FBF78CFC8D
:105240000646304670BD00009005002070B504464B
:10525000002514B92625284670BD0F480088000493
:105260000E4908600D204860402088600020C8601A
:105270004FF4806008610846FEF794FF0D20FBF7AD
:105280006BFC05460DB12846E6E70020FEF74CFF13
:1052900020602846E0E700009400002090050020F0
:1052A00010B5002400200A4908600C204860402006
:1052B00088600020C8604FF4806008610846FEF7EF
:1052C00071FF0C20FBF748FC0446204610BD00008F
:1052D0009005002070B500256C1E00E0641E184883
:1052E000006838B91748006820B91748007808B92D
:1052F000002CF3D1002012490860441E00E0641E17
:105300001248006800F4005008B1002CF7D1104892
:105310000068012805D1FFF7C3FF054600200C49AE
:1053200008600CB905B9042540F2FF50FEF798FE5D
:105330000548007810B10448007870BD2846FCE7A5
:10534000A4000020A00000209C000020342C01407C
:105350009800002070B500256C1E00E0641E1848FF
:10536000006838B91748006820B91748007808B9AC
:10537000002CF3D1002012490860441E00E0641E96
:105380001248006800F4805008B1002CF7D1104892
:105390000068012805D1FFF783FF054600200C496E
:1053A00008600CB905B9042540F2FF50FEF758FE1D
:1053B0000548007810B10448007870BD2846FCE725
:1053C000A4000020A00000209C000020342C0140FC
:1053D000980000202DE9F047814615461E46DDE97C
:1053E00008780024002049490870494908600120D4
:1053F00048490860002048490860012140F21A30FD
:10540000FEF7A2FE08FB07F14846FFF7B3FC0120B8
:10541000FEF738FE41480068022808D10702020260
:10542000002328463146FAF7DDFE05460E463C4885
:10543000076010203A494860402088600020C8601A
:105440004FF4806008610846FEF7ACFE1020FBF7C1
:1054500083FB044614B12046BDE8F087314800883C
:1054600000042F49086037204860402088600020F1
:10547000C8604FF4806008610846FEF793FE37204D
:10548000FBF76AFB04460CB12046E5E72448C0F868
:105490000080172022494860402088600020C860B2
:1054A0004FF4806008610846FEF77CFE1720FBF78A
:1054B00053FB04460CB12046CEE71948056019207D
:1054C00017494860402088600020C8604FF4806021
:1054D00008610846FEF766FE1920FBF73DFB04460F
:1054E0000CB12046B8E74FF0FF300F49086008FBC9
:1054F00007F04860902088600020C86008610120A3
:1055000048610846FEF7C4FD2046A5E79C00002040
:10551000A0000020980000202C2C014090000020CA
:105520009005002094000020A405002021B10288ED
:1055300042F04002028004E002884FF6BF731A4036
:105540000280704770B505460C461646402011494A
:105550000880032000F0B0F8200E00F0ADF8C4F38E
:10556000074000F0A9F8C4F3072000F0A5F8E0B266
:1055700000F0A2F804E0FF2000F09EF828706D1CF7
:10558000301EA6F10106F6D140200249891E08808E
:1055900070BD00001A14024000B587B00121202020
:1055A000FEF7C0FA01210805FEF7FCFA05220721E3
:1055B0002F48FCF78FFC052208212D48FCF78AFCB8
:1055C000052209212A48FCF785FC80200090022052
:1055D0008DF805008DF8040000208DF806008DF888
:1055E000070069462248FCF72DFC4FF480700090BC
:1055F00069461F48FCF726FC4FF40070009069468E
:105600001B48FCF71FFC4020009001208DF804008F
:1056100069461748FCF716FC4020154918310880E8
:105620000020ADF808004FF48270ADF80A000020A9
:10563000ADF80C000220ADF80E000120ADF810000E
:105640004002ADF812000020ADF81400ADF81600CD
:105650000720ADF8180002A9064800F077F80121EC
:105660000448FFF763FF00F007F807B000BD000033
:10567000001402400050014010B540200D49088040
:10568000152000F019F8FF2000F016F8044640201D
:105690000849891E088004F0010048B94020891C8F
:1056A0000880B72000F008F840200249891E0880D1
:1056B00010BD00001A14024010B504464FF480508B
:1056C000194908600AE018490868411E164A116025
:1056D00020B9002000F058F8C0B210BD02211348D4
:1056E00000F026F80028EED02146104800F02CF8F3
:1056F0004FF480500C4908600AE00B490868411ECD
:10570000094A116020B9012000F03EF8C0B2E4E778
:105710000121064800F00CF80028EED0034800F004
:1057200010F8C0B2D9E7000080000020005001400E
:105730000246002013890B400BB1012000E000203D
:1057400070470146888970478181704710B50022F3
:10575000028802F441520B884C8823438C882343EF
:10576000CC8823430C8923434C8923438C892343CE
:10577000CC8923431A430280838B4FF2FF7423406A
:1057800083830B8A038210BD10B50446214602A014
:1057900000F07CFC002010BD3C3C2D464C415348A1
:1057A0002D4552524F522D3E3E2053504920B5C8F0
:1057B000B4FDB3ACCAB1216572726F72436F646598
:1057C000203D2025640A00007047000030B500220B
:1057D0008B071C0F0F2303FA04F20B4B8C1053F8AA
:1057E00024309343084C8D1044F8253023468C1008
:1057F00053F824308C07240F00FA04F42343024C9E
:105800008D1044F8253030BD0838014010B50F48E0
:1058100000683C21B0FBF1F201FB1200012807D126
:105820000B48006820B9FEF78FFA0120084908608C
:10583000064800683C21B0FBF1F201FB120002288F
:1058400002D100200249086010BD000010000020B5
:10585000180000200CB5002001900090414800681D
:1058600040F480303F49086000BF3E48006800F4C3
:10587000003000900198401C0190009818B90198E0
:10588000B0F5A04FF1D13748006800F4003010B1F6
:105890000120009001E0002000900098012860D1D4
:1058A00030484030006840F080502E494031086058
:1058B0002D48006840F440402B49086029480830D2
:1058C00000682849083108600846006840F4004034
:1058D00008600846006840F4A05008602348091F8B
:1058E0000860081F006840F08070091F086000BF52
:1058F0001C48006800F000700028F9D01A480068C1
:1059000040F480301849086000BF1748406800F430
:1059100080300028F9D01448006840F40030124963
:10592000086000BF1048406800F400300028F9D03B
:1059300040F205700E4908600A480830006820F0FF
:1059400003000849083108600846006840F002007A
:10595000086000BF03480830006800F00C00082809
:10596000F8D10CBD0038024000700040195A4007C1
:10597000003C024010B51548006840F4700013491F
:1059800008601348006840F00100114908600020D9
:105990000F49083108600E4800680E4908400C495C
:1059A00008600D48091D0860081F006820F4802069
:1059B000091F0860002006490C310860FFF74AFF04
:1059C0004FF0006001498039086010BD88ED00E0AB
:1059D00000380240FFFFF6FE1030002410B5012110
:1059E000084800F027F860B107480068012804D192
:1059F00006480068401C054908600121014800F084
:105A00000AF810BD00100040140000201000002013
:105A1000CA4302827047CA430282704721B102889A
:105A200042F00102028004E002884FF6FE731A4041
:105A30000280704730B50246002000230024158AFA
:105A400005EA0103958905EA010413B10CB10120AF
:105A500000E0002030BD1AB183890B43838102E04E
:105A600083898B43838170470EB501211020FEF797
:105A700089F842F20F70019042F22730ADF8000031
:105A80006946084800F010F801210648FFF7C0FFFA
:105A9000012211460348FFF7DEFF01210148FFF70D
:105AA000BDFF0EBD0010004000220288184B984236
:105AB0000ED0184B98420BD0B0F1804F08D0164B47
:105AC000984205D0154B984202D0154B984204D10C
:105AD0004FF68F731A404B881A43124B984207D0E7
