:020000040800F2
:1000000010170020C10100088B03000883030008BB
:100010008703000871030008CD0C000800000000F1
:10002000000000000000000000000000410B00087C
:100030008103000800000000150300085D060008A9
:10004000FB010008FB010008FB010008FB010008A0
:10005000FB010008FB010008FB010008FB01000890
:10006000FB010008FB010008FB010008FB01000880
:10007000FB010008FB010008FB010008FB01000870
:10008000FB010008FB010008FB010008FB01000860
:10009000FB010008FB010008FB010008FB01000850
:1000A000FB010008FB010008FB010008FB01000840
:1000B000FB010008FB010008FB010008FB01000830
:1000C000FB010008FB010008FB010008FB01000820
:1000D000FB010008FB010008FB010008FB01000810
:1000E000FB010008FB010008FB010008FB01000800
:1000F000FB010008FB010008FB010008FB010008F0
:10010000FB010008FB010008FB010008FB010008DF
:10011000FB010008FB010008FB010008FB010008CF
:10012000FB010008FB010008FB010008FB010008BF
:10013000FB010008FB010008FB010008FB010008AF
:10014000FB010008FB010008FB010008FB0100089F
:10015000FB010008FB010008FB010008FB0100088F
:10016000FB010008FB010008FB010008FB0100087F
:10017000FB010008FB010008FB010008FB0100086F
:10018000FB010008FB010008FB010008FB0100085F
:10019000FB010008FB010008FB010008FB0100084F
:1001A000FB010008FB010008FB010008DFF80CD090
:1001B00000F046F800480047EF0C00081017002038
:1001C000DFF83800016841F470010160BFF34F8F20
:1001D000DFF82C00016821F040410160BFF36F8F10
:1001E0000848804708480047FEE7FEE7FEE7FEE7CD
:1001F000FEE7FEE7FEE7FEE7FEE7FEE788ED00E04C
:1002000034EF00E0650C0008AD01000872B67047DD
:1002100062B67047EFF3108072B6704780F31088B3
:10022000704730BF704720BF7047B0FA80F070470A
:1002300090FAA0F0B0FA80F0704790FAA0F0704702
:10024000064C074D06E0E06840F0010394E8070023
:1002500098471034AC42F6D3FFF7ACFFF40C00081B
:10026000140D0008EFF3098141B1F1EE101A40F8C6
:10027000041D20ED200A3B490A6810607047B0EC6D
:10028000200A02C8E1EE101A37490A681060704768
:1002900072B64EF62250CEF2000040F2FF01C0F2DC
:1002A0000001017040F2CC00C2F20000016881F34D
:1002B000088840F24200C2F2000040F24301C2F25C
:1002C00000010A78027040F2C405C2F2000540F253
:1002D000C801C2F200010A682A60106880F3098828
:1002E000EFF3148040F0020080F31488BFF36F8FA7
:1002F000BDE8F00F0FBCBDE8005006BC62B6084771
:100300001A484FF080510160704718484FF08051F3
:100310000160704772B6EFF3098020E9F00F40F2F8
:10032000C405C2F200052E683060744600F00EF974
:1003300040F24200C2F2000040F24301C2F200016A
:100340000A78027040F2C801C2F200010A682A600D
:1003500044F0F40E1068B0E8F00F80F3098862B63C
:1003600070470000C4000020C800002004ED00E039
:1003700000BFFEE70149486870470000001000E038
:10038000704700BFFEE700BFFEE7704710B50024CE
:100390002D480078012800D010BD00BFFFF73AFFBC
:1003A000044600BF2948007828B900BF2046FFF75F
:1003B00035FF00BFF0E725480078401E234908704C
:1003C00008460078002805DD00BF2046FFF726FF1D
:1003D00000BFE1E71E480078002805DD00BF204689
:1003E000FFF71CFF00BFD7E700F022FA1949087099
:1003F0000846007800EB4000174951F820001749E3
:1004000008600846006816490968884205D100BF9F
:100410002046FFF703FF00BFBEE710480068D0F892
:100420008C00401C0D490968C1F88C000D4800681B
:10043000401C0C490860FFF768FF00BF2046FFF72B
:10044000EDFE00BF00BFA7E7290000202800002024
:100450005C000020430000209C010020C800002018
:10046000C40000208000002010B50024204800783F
:10047000002800DD10BD1F480078002800DDF9E7E6
:1004800000BFFFF7C7FE044600BF00F0D1F91A49CC
:1004900008700846007800EB4000184951F8200029
:1004A000174908600846006816490968884205D15E
:1004B00000BF2046FFF7B2FE00BFDBE71048006830
:1004C000D0F88C00401C0E490968C1F88C000E4819
:1004D0000068401C0C490860FFF712FF00BF20466F
:1004E000FFF79CFE00BFBFF36F8F00BFC2E70000A5
:1004F000280000205C000020430000209C01002018
:10050000C8000020C4000020800000202DE9F04138
:1005100006460D4614461DB1B5F5004F02D100E068
:1005200000BF05E045F6256020800020BDE8F08191
:1005300000BFFFF71FFF804623464246294630464C
:1005400000F0F0F907463846F0E7000010B52948FA
:10055000006890F8440000F0040020B125490968C3
:100560000868FFF77FFE2448006890F8440000F018
:10057000040020B1204909680868FFF780FE1F4881
:10058000006810B11D4800688047FFF7F3FE04467D
:100590001848006818490968884215D0154800684D
:1005A000D0F89400201A13490968C1F89000114846
:1005B0000068D0F898000F490968D1F890100844F5
:1005C0000C490968C1F898000B480068C0F89440CD
:1005D00008480068D0F8B00009490968884205D287
:1005E0000748006803490968C1F8B00000200449C1
:1005F000086010BDC4000020C80000201C000020BE
:100600005800002008B500F01FF86A4600210A488B
:10061000FFF77CFF09480068401E0849086008464B
:10062000006838B90648006808606A460021054835
:10063000FFF76CFF08BD00005C050020C000002033
:10064000BC0000204C06002010B50348006810B123
:1006500001480068804710BD2000002010B500242C
:1006600000BF00BFFFF7D6FD044600BF00BF08482B
:100670000078401C0649087000BF00BF2046FFF705
:10068000CDFD00BF00BFFFF7BDFFFFF77FFE10BD30
:100690002800002030B507A5C1F8BC5000F10804BF
:1006A00022681AB193681D6AC56101E001A5C561A0
:1006B00030BD0000200000002DE9F0410446256B0C
:1006C000B4F846600AE0D5F80C8008F1080729461E
:1006D000384600F00BF82035701E86B2002EF2DC92
:1006E0000020A4F846002063BDE8F08110B504891D
:1006F000012C03D100240460446011E00C6824B98B
:100700004A680024146002600AE04C6824B90B684F
:1007100000245C60436003E00B684A685A60136021
:100720000489641E048100244C600C6010BD2DE916
:10073000F84306460C4617469846089D94F836003E
:1007400008285BD2DFE800F0040508090607323309
:1007500000BF00BF00BF52E000BF94F83400032880
:1007600007D143463A4621463046009500F04AF804
:1007700003E0A765A4F85C80A56436B12046FFF7C6
:100780009BFF21463046FFF785FF94F8360003288B
:1007900002D1204600F0A8F9204600F06FF80020B2
:1007A0003434A070607004F8340928E000BF94F875
:1007B0003400032807D143463A4621463046009587
:1007C00000F020F803E0A765A4F85C80A56436B1CA
:1007D0002046FFF771FF21463046FFF75BFF94F894
:1007E0003600072802D1204600F07EF90420343478
:1007F000A0700020607004F8340900E000BF00BF62
:10080000BDE8F883F0B50446059E086BB1F8465084
:100810000AE0C768A74204D1046142610383C6614C
:1008200004E020306F1EBDB2002DF2DC00BFF0BD31
:1008300070B50025074C03E005F12000C5B2241D6A
:1008400020680028F8D02068FFF7EFFC2844C5B2E4
:10085000284670BD0000002030B5420900F01F039B
:100860000121C3F11F04A140034C54F822400C4362
:10087000014D45F8224030BD0000002010B504466F
:1008800094F83700FFF7E8FF94F837000549097836
:10089000884203D1204600F027F802E0204600F00D
:1008A00003F810BD4200002010B590F8373003EB7C
:1008B00043030C4C04EB83010B893BB901230B81EF
:1008C0000023C36003610860486009E00B895B1C7A
:1008D0000B810B68C360002303610A681061086024
:1008E00010BD00009C01002010B590F8373003EBDC
:1008F00043030B4C04EB83010B893BB901230B81B0
:100900000023C36003610860486008E00B895B1C3A
:100910000B810023C3604A680261D060486010BD4B
:100920009C0100202DE9F8430446884617461D46E1
:100930004FF0000900BF00BFFFF76CFC814600BF0D
:1009400000BF0CB967480468A7640020288094F8A9
:100950003600082876D2DFE800F00405505106077B
:10096000525300BF00BF00BF0420012804D002285A
:1009700013D0042833D122E0E06CFF280CD100BF53
:1009800000BF4846FFF74AFC00BF00BF46F6C5500F
:1009900028800020BDE8F88322E04FF6FF71E06C6C
:1009A00088420BD100BF00BF4846FFF737FC00BFAD
:1009B00000BF46F6C55028800020EBE710E0E06C51
:1009C000401C58B900BF00BF4846FFF727FC00BFD6
:1009D00000BF46F6C55028800020DBE700E000BFDE
:1009E00000BFE06C401CE064E66C00BF00BF4846FE
:1009F000FFF714FC00BF00BF71E000BF00BF00BFE5
:100A000094F83400072815D100231A4621461846C9
:100A10000097FFF78CFEE66C00BF00BF4846FFF76B
:100A2000FDFB00BF00BF08F4004000284AD1FFF7DB
:100A30001BFD47E00420012805D0022813D004281C
:100A400033D122E03FE0E06CFF280BD100BF00BFB4
:100A50004846FFF7E3FB00BF00BF46F6C5502880BD
:100A6000002097E722E04FF6FF71E06C88420BD13F
:100A700000BF00BF4846FFF7D1FB00BF00BF46F6EE
:100A8000C5502880002085E710E0E06C401C58B974
:100A900000BF00BF4846FFF7C1FB00BF00BF46F6DE
:100AA000C5502880002075E700E000BF00BFE06C63
:100AB000401CE064E66C00BF00BF4846FFF7AEFB99
:100AC00000BF00BF0BE000BF00BF4846FFF7A6FB1A
:100AD00000BF00BF46F62D602880002600BF00BF83
:100AE000304657E7C400002030B5C26983694169C8
:100AF000ABB929B90024146094800465C4611EE078
:100B000000248C610C6D056D2C440C65116094887B
:100B1000641E9480002444610465C4610FE059613F
:100B200021B18B610C6D056D2C440C650024846132
:100B30009488641E9480002444610465C46130BDBF
:100B4000704700000CB500200190009041480068FB
:100B500040F480303F49086000BF3E48006800F420
:100B6000003000900198401C0190009818B901983D
:100B7000B0F5A04FF1D13748006800F4003010B153
:100B80000120009001E0002000900098012860D131
:100B900030484030006840F080502E4940310860B5
:100BA0002D48006840F440402B490860294808302F
:100BB00000682849083108600846006840F4004091
:100BC00008600846006840F4A05008602348091FE8
:100BD0000860081F006840F08070091F086000BFAF
:100BE0001C48006800F000700028F9D01A4800681E
:100BF00040F480301849086000BF1748406800F48E
:100C000080300028F9D01448006840F400301249C0
:100C1000086000BF1048406800F400300028F9D098
:100C200040F205700E4908600A480830006820F05C
:100C300003000849083108600846006840F00200D7
:100C4000086000BF03480830006800F00C00082866
:100C5000F8D10CBD0038024000700040195A40071E
:100C6000003C024010B51548006840F4700013497C
:100C700008601348006840F0010011490860002036
:100C80000F49083108600E4800680E4908400C49B9
:100C900008600D48091D0860081F006820F48020C6
:100CA000091F0860002006490C310860FFF74AFF61
:100CB0004FF0006001498039086010BD88ED00E008
:100CC00000380240FFFFF6FE1030002400BFFEE7B0
:100CD00002E008C8121F08C1002AFAD17047704705
:100CE000002001E001C1121F002AFBD17047002043
:100CF00070470000140D000800000020D000000024
:100D0000D00C0008E40D0008D000002040160000C0
:100D1000E00C0008000000000000000000000000DF
:100D200000000000000000000000000000000000C3
:100D300000000000000000000000000000000000B3
:100D400000000000000000000000000000000000A3
:100D50000000000000000000000000000000000093
:100D60000000000000000000000000000000000083
:100D70000000000000000000000000000000000073
:100D80000000000000000000000000000000000063
:100D90000000000000000000000000000000000053
:100DA0000000000000000000000000000000000043
:100DB0000000000000000000000000000000000033
:100DC0000000000000000000000000000000000023
:100DD0000000000000000000000000000000000013
:040DE000000000000F
:04000005080001AD41
:00000001FF
